{
  "contractName": "KaleidoNFT",
  "abi": [
    {
      "inputs": [],
      "stateMutability": "nonpayable",
      "type": "constructor"
    },
    {
      "anonymous": false,
      "inputs": [
        {
          "indexed": true,
          "internalType": "address",
          "name": "owner",
          "type": "address"
        },
        {
          "indexed": true,
          "internalType": "address",
          "name": "approved",
          "type": "address"
        },
        {
          "indexed": true,
          "internalType": "uint256",
          "name": "tokenId",
          "type": "uint256"
        }
      ],
      "name": "Approval",
      "type": "event"
    },
    {
      "anonymous": false,
      "inputs": [
        {
          "indexed": true,
          "internalType": "address",
          "name": "owner",
          "type": "address"
        },
        {
          "indexed": true,
          "internalType": "address",
          "name": "operator",
          "type": "address"
        },
        {
          "indexed": false,
          "internalType": "bool",
          "name": "approved",
          "type": "bool"
        }
      ],
      "name": "ApprovalForAll",
      "type": "event"
    },
    {
      "anonymous": false,
      "inputs": [
        {
          "indexed": true,
          "internalType": "address",
          "name": "previousOwner",
          "type": "address"
        },
        {
          "indexed": true,
          "internalType": "address",
          "name": "newOwner",
          "type": "address"
        }
      ],
      "name": "OwnershipTransferred",
      "type": "event"
    },
    {
      "anonymous": false,
      "inputs": [
        {
          "indexed": true,
          "internalType": "address",
          "name": "from",
          "type": "address"
        },
        {
          "indexed": true,
          "internalType": "address",
          "name": "to",
          "type": "address"
        },
        {
          "indexed": true,
          "internalType": "uint256",
          "name": "tokenId",
          "type": "uint256"
        }
      ],
      "name": "Transfer",
      "type": "event"
    },
    {
      "inputs": [
        {
          "internalType": "address",
          "name": "to",
          "type": "address"
        },
        {
          "internalType": "uint256",
          "name": "tokenId",
          "type": "uint256"
        }
      ],
      "name": "approve",
      "outputs": [],
      "stateMutability": "nonpayable",
      "type": "function"
    },
    {
      "inputs": [
        {
          "internalType": "address",
          "name": "owner",
          "type": "address"
        }
      ],
      "name": "balanceOf",
      "outputs": [
        {
          "internalType": "uint256",
          "name": "",
          "type": "uint256"
        }
      ],
      "stateMutability": "view",
      "type": "function"
    },
    {
      "inputs": [
        {
          "internalType": "uint256",
          "name": "tokenId",
          "type": "uint256"
        }
      ],
      "name": "getApproved",
      "outputs": [
        {
          "internalType": "address",
          "name": "",
          "type": "address"
        }
      ],
      "stateMutability": "view",
      "type": "function"
    },
    {
      "inputs": [
        {
          "internalType": "address",
          "name": "owner",
          "type": "address"
        },
        {
          "internalType": "address",
          "name": "operator",
          "type": "address"
        }
      ],
      "name": "isApprovedForAll",
      "outputs": [
        {
          "internalType": "bool",
          "name": "",
          "type": "bool"
        }
      ],
      "stateMutability": "view",
      "type": "function"
    },
    {
      "inputs": [],
      "name": "name",
      "outputs": [
        {
          "internalType": "string",
          "name": "",
          "type": "string"
        }
      ],
      "stateMutability": "view",
      "type": "function"
    },
    {
      "inputs": [],
      "name": "owner",
      "outputs": [
        {
          "internalType": "address",
          "name": "",
          "type": "address"
        }
      ],
      "stateMutability": "view",
      "type": "function"
    },
    {
      "inputs": [
        {
          "internalType": "uint256",
          "name": "tokenId",
          "type": "uint256"
        }
      ],
      "name": "ownerOf",
      "outputs": [
        {
          "internalType": "address",
          "name": "",
          "type": "address"
        }
      ],
      "stateMutability": "view",
      "type": "function"
    },
    {
      "inputs": [],
      "name": "renounceOwnership",
      "outputs": [],
      "stateMutability": "nonpayable",
      "type": "function"
    },
    {
      "inputs": [
        {
          "internalType": "address",
          "name": "from",
          "type": "address"
        },
        {
          "internalType": "address",
          "name": "to",
          "type": "address"
        },
        {
          "internalType": "uint256",
          "name": "tokenId",
          "type": "uint256"
        }
      ],
      "name": "safeTransferFrom",
      "outputs": [],
      "stateMutability": "nonpayable",
      "type": "function"
    },
    {
      "inputs": [
        {
          "internalType": "address",
          "name": "from",
          "type": "address"
        },
        {
          "internalType": "address",
          "name": "to",
          "type": "address"
        },
        {
          "internalType": "uint256",
          "name": "tokenId",
          "type": "uint256"
        },
        {
          "internalType": "bytes",
          "name": "_data",
          "type": "bytes"
        }
      ],
      "name": "safeTransferFrom",
      "outputs": [],
      "stateMutability": "nonpayable",
      "type": "function"
    },
    {
      "inputs": [
        {
          "internalType": "address",
          "name": "operator",
          "type": "address"
        },
        {
          "internalType": "bool",
          "name": "approved",
          "type": "bool"
        }
      ],
      "name": "setApprovalForAll",
      "outputs": [],
      "stateMutability": "nonpayable",
      "type": "function"
    },
    {
      "inputs": [
        {
          "internalType": "bytes4",
          "name": "interfaceId",
          "type": "bytes4"
        }
      ],
      "name": "supportsInterface",
      "outputs": [
        {
          "internalType": "bool",
          "name": "",
          "type": "bool"
        }
      ],
      "stateMutability": "view",
      "type": "function"
    },
    {
      "inputs": [],
      "name": "symbol",
      "outputs": [
        {
          "internalType": "string",
          "name": "",
          "type": "string"
        }
      ],
      "stateMutability": "view",
      "type": "function"
    },
    {
      "inputs": [
        {
          "internalType": "uint256",
          "name": "tokenId",
          "type": "uint256"
        }
      ],
      "name": "tokenURI",
      "outputs": [
        {
          "internalType": "string",
          "name": "",
          "type": "string"
        }
      ],
      "stateMutability": "view",
      "type": "function"
    },
    {
      "inputs": [
        {
          "internalType": "address",
          "name": "from",
          "type": "address"
        },
        {
          "internalType": "address",
          "name": "to",
          "type": "address"
        },
        {
          "internalType": "uint256",
          "name": "tokenId",
          "type": "uint256"
        }
      ],
      "name": "transferFrom",
      "outputs": [],
      "stateMutability": "nonpayable",
      "type": "function"
    },
    {
      "inputs": [
        {
          "internalType": "address",
          "name": "newOwner",
          "type": "address"
        }
      ],
      "name": "transferOwnership",
      "outputs": [],
      "stateMutability": "nonpayable",
      "type": "function"
    },
    {
      "inputs": [
        {
          "internalType": "string",
          "name": "tokenURI",
          "type": "string"
        }
      ],
      "name": "mintNFT",
      "outputs": [
        {
          "internalType": "uint256",
          "name": "",
          "type": "uint256"
        }
      ],
      "stateMutability": "nonpayable",
      "type": "function"
    },
    {
      "inputs": [
        {
          "internalType": "uint256",
          "name": "tokenID",
          "type": "uint256"
        }
      ],
      "name": "burnNFT",
      "outputs": [],
      "stateMutability": "nonpayable",
      "type": "function"
    },
    {
      "inputs": [
        {
          "internalType": "uint256",
          "name": "tokenID",
          "type": "uint256"
        },
        {
          "internalType": "address",
          "name": "from",
          "type": "address"
        },
        {
          "internalType": "address",
          "name": "to",
          "type": "address"
        }
      ],
      "name": "transferNFT",
      "outputs": [],
      "stateMutability": "nonpayable",
      "type": "function"
    }
  ],
  "bytecode": "0x60806040523480156200001157600080fd5b506040518060400160405280600b81526020017f4b616c6569646f204e46540000000000000000000000000000000000000000008152506040518060400160405280600381526020017f4b4c440000000000000000000000000000000000000000000000000000000000815250816000908051906020019062000096929190620001a6565b508060019080519060200190620000af929190620001a6565b505050620000d2620000c6620000d860201b60201c565b620000e060201b60201c565b620002ba565b600033905090565b6000600760009054906101000a900473ffffffffffffffffffffffffffffffffffffffff16905081600760006101000a81548173ffffffffffffffffffffffffffffffffffffffff021916908373ffffffffffffffffffffffffffffffffffffffff1602179055508173ffffffffffffffffffffffffffffffffffffffff168173ffffffffffffffffffffffffffffffffffffffff167f8be0079c531659141344cd1fd0a4f28419497f9722a3daafe3b4186f6b6457e060405160405180910390a35050565b828054620001b49062000285565b90600052602060002090601f016020900481019282620001d8576000855562000224565b82601f10620001f357805160ff191683800117855562000224565b8280016001018555821562000224579182015b828111156200022357825182559160200191906001019062000206565b5b50905062000233919062000237565b5090565b5b808211156200025257600081600090555060010162000238565b5090565b7f4e487b7100000000000000000000000000000000000000000000000000000000600052602260045260246000fd5b600060028204905060018216806200029e57607f821691505b602082108103620002b457620002b362000256565b5b50919050565b6132da80620002ca6000396000f3fe608060405234801561001057600080fd5b50600436106101215760003560e01c806370a08231116100ad578063b88d4fde11610071578063b88d4fde146102f2578063c87b56dd1461030e578063e985e9c51461033e578063f2fde38b1461036e578063fb37e8831461038a57610121565b806370a0823114610260578063715018a6146102905780638da5cb5b1461029a57806395d89b41146102b8578063a22cb465146102d657610121565b806323b872dd116100f457806323b872dd146101c05780632890e0d7146101dc5780632aafe132146101f857806342842e0e146102145780636352211e1461023057610121565b806301ffc9a71461012657806306fdde0314610156578063081812fc14610174578063095ea7b3146101a4575b600080fd5b610140600480360381019061013b9190611f00565b6103ba565b60405161014d9190611f48565b60405180910390f35b61015e61049c565b60405161016b9190611ffc565b60405180910390f35b61018e60048036038101906101899190612054565b61052e565b60405161019b91906120c2565b60405180910390f35b6101be60048036038101906101b99190612109565b6105b3565b005b6101da60048036038101906101d59190612149565b6106ca565b005b6101f660048036038101906101f19190612054565b61072a565b005b610212600480360381019061020d919061219c565b610736565b005b61022e60048036038101906102299190612149565b6107c2565b005b61024a60048036038101906102459190612054565b6107e2565b60405161025791906120c2565b60405180910390f35b61027a600480360381019061027591906121ef565b610893565b604051610287919061222b565b60405180910390f35b61029861094a565b005b6102a26109d2565b6040516102af91906120c2565b60405180910390f35b6102c06109fc565b6040516102cd9190611ffc565b60405180910390f35b6102f060048036038101906102eb9190612272565b610a8e565b005b61030c600480360381019061030791906123e7565b610aa4565b005b61032860048036038101906103239190612054565b610b06565b6040516103359190611ffc565b60405180910390f35b6103586004803603810190610353919061246a565b610c57565b6040516103659190611f48565b60405180910390f35b610388600480360381019061038391906121ef565b610ceb565b005b6103a4600480360381019061039f919061254b565b610de2565b6040516103b1919061222b565b60405180910390f35b60007f80ac58cd000000000000000000000000000000000000000000000000000000007bffffffffffffffffffffffffffffffffffffffffffffffffffffffff1916827bffffffffffffffffffffffffffffffffffffffffffffffffffffffff1916148061048557507f5b5e139f000000000000000000000000000000000000000000000000000000007bffffffffffffffffffffffffffffffffffffffffffffffffffffffff1916827bffffffffffffffffffffffffffffffffffffffffffffffffffffffff1916145b80610495575061049482610e95565b5b9050919050565b6060600080546104ab906125c3565b80601f01602080910402602001604051908101604052809291908181526020018280546104d7906125c3565b80156105245780601f106104f957610100808354040283529160200191610524565b820191906000526020600020905b81548152906001019060200180831161050757829003601f168201915b5050505050905090565b600061053982610eff565b610578576040517f08c379a000000000000000000000000000000000000000000000000000000000815260040161056f90612666565b60405180910390fd5b6004600083815260200190815260200160002060009054906101000a900473ffffffffffffffffffffffffffffffffffffffff169050919050565b60006105be826107e2565b90508073ffffffffffffffffffffffffffffffffffffffff168373ffffffffffffffffffffffffffffffffffffffff160361062e576040517f08c379a0000000000000000000000000000000000000000000000000000000008152600401610625906126f8565b60405180910390fd5b8073ffffffffffffffffffffffffffffffffffffffff1661064d610f6b565b73ffffffffffffffffffffffffffffffffffffffff16148061067c575061067b81610676610f6b565b610c57565b5b6106bb576040517f08c379a00000000000000000000000000000000000000000000000000000000081526004016106b29061278a565b60405180910390fd5b6106c58383610f73565b505050565b6106db6106d5610f6b565b8261102c565b61071a576040517f08c379a00000000000000000000000000000000000000000000000000000000081526004016107119061281c565b60405180910390fd5b61072583838361110a565b505050565b61073381611370565b50565b61073e610f6b565b73ffffffffffffffffffffffffffffffffffffffff1661075c6109d2565b73ffffffffffffffffffffffffffffffffffffffff16146107b2576040517f08c379a00000000000000000000000000000000000000000000000000000000081526004016107a990612888565b60405180910390fd5b6107bd8282856106ca565b505050565b6107dd83838360405180602001604052806000815250610aa4565b505050565b6000806002600084815260200190815260200160002060009054906101000a900473ffffffffffffffffffffffffffffffffffffffff169050600073ffffffffffffffffffffffffffffffffffffffff168173ffffffffffffffffffffffffffffffffffffffff160361088a576040517f08c379a00000000000000000000000000000000000000000000000000000000081526004016108819061291a565b60405180910390fd5b80915050919050565b60008073ffffffffffffffffffffffffffffffffffffffff168273ffffffffffffffffffffffffffffffffffffffff1603610903576040517f08c379a00000000000000000000000000000000000000000000000000000000081526004016108fa906129ac565b60405180910390fd5b600360008373ffffffffffffffffffffffffffffffffffffffff1673ffffffffffffffffffffffffffffffffffffffff168152602001908152602001600020549050919050565b610952610f6b565b73ffffffffffffffffffffffffffffffffffffffff166109706109d2565b73ffffffffffffffffffffffffffffffffffffffff16146109c6576040517f08c379a00000000000000000000000000000000000000000000000000000000081526004016109bd90612888565b60405180910390fd5b6109d060006113c3565b565b6000600760009054906101000a900473ffffffffffffffffffffffffffffffffffffffff16905090565b606060018054610a0b906125c3565b80601f0160208091040260200160405190810160405280929190818152602001828054610a37906125c3565b8015610a845780601f10610a5957610100808354040283529160200191610a84565b820191906000526020600020905b815481529060010190602001808311610a6757829003601f168201915b5050505050905090565b610aa0610a99610f6b565b8383611489565b5050565b610ab5610aaf610f6b565b8361102c565b610af4576040517f08c379a0000000000000000000000000000000000000000000000000000000008152600401610aeb9061281c565b60405180910390fd5b610b00848484846115f5565b50505050565b6060610b1182610eff565b610b50576040517f08c379a0000000000000000000000000000000000000000000000000000000008152600401610b4790612a3e565b60405180910390fd5b6000600660008481526020019081526020016000208054610b70906125c3565b80601f0160208091040260200160405190810160405280929190818152602001828054610b9c906125c3565b8015610be95780601f10610bbe57610100808354040283529160200191610be9565b820191906000526020600020905b815481529060010190602001808311610bcc57829003601f168201915b505050505090506000610bfa611651565b90506000815103610c0f578192505050610c52565b600082511115610c44578082604051602001610c2c929190612a9a565b60405160208183030381529060405292505050610c52565b610c4d84611668565b925050505b919050565b6000600560008473ffffffffffffffffffffffffffffffffffffffff1673ffffffffffffffffffffffffffffffffffffffff16815260200190815260200160002060008373ffffffffffffffffffffffffffffffffffffffff1673ffffffffffffffffffffffffffffffffffffffff16815260200190815260200160002060009054906101000a900460ff16905092915050565b610cf3610f6b565b73ffffffffffffffffffffffffffffffffffffffff16610d116109d2565b73ffffffffffffffffffffffffffffffffffffffff1614610d67576040517f08c379a0000000000000000000000000000000000000000000000000000000008152600401610d5e90612888565b60405180910390fd5b600073ffffffffffffffffffffffffffffffffffffffff168173ffffffffffffffffffffffffffffffffffffffff1603610dd6576040517f08c379a0000000000000000000000000000000000000000000000000000000008152600401610dcd90612b30565b60405180910390fd5b610ddf816113c3565b50565b6000610dec610f6b565b73ffffffffffffffffffffffffffffffffffffffff16610e0a6109d2565b73ffffffffffffffffffffffffffffffffffffffff1614610e60576040517f08c379a0000000000000000000000000000000000000000000000000000000008152600401610e5790612888565b60405180910390fd5b610e6a600861170f565b6000610e766008611725565b9050610e823382611733565b610e8c818461190c565b80915050919050565b60007f01ffc9a7000000000000000000000000000000000000000000000000000000007bffffffffffffffffffffffffffffffffffffffffffffffffffffffff1916827bffffffffffffffffffffffffffffffffffffffffffffffffffffffff1916149050919050565b60008073ffffffffffffffffffffffffffffffffffffffff166002600084815260200190815260200160002060009054906101000a900473ffffffffffffffffffffffffffffffffffffffff1673ffffffffffffffffffffffffffffffffffffffff1614159050919050565b600033905090565b816004600083815260200190815260200160002060006101000a81548173ffffffffffffffffffffffffffffffffffffffff021916908373ffffffffffffffffffffffffffffffffffffffff160217905550808273ffffffffffffffffffffffffffffffffffffffff16610fe6836107e2565b73ffffffffffffffffffffffffffffffffffffffff167f8c5be1e5ebec7d5bd14f71427d1e84f3dd0314c0f7b2291e5b200ac8c7c3b92560405160405180910390a45050565b600061103782610eff565b611076576040517f08c379a000000000000000000000000000000000000000000000000000000000815260040161106d90612bc2565b60405180910390fd5b6000611081836107e2565b90508073ffffffffffffffffffffffffffffffffffffffff168473ffffffffffffffffffffffffffffffffffffffff1614806110c357506110c28185610c57565b5b8061110157508373ffffffffffffffffffffffffffffffffffffffff166110e98461052e565b73ffffffffffffffffffffffffffffffffffffffff16145b91505092915050565b8273ffffffffffffffffffffffffffffffffffffffff1661112a826107e2565b73ffffffffffffffffffffffffffffffffffffffff1614611180576040517f08c379a000000000000000000000000000000000000000000000000000000000815260040161117790612c54565b60405180910390fd5b600073ffffffffffffffffffffffffffffffffffffffff168273ffffffffffffffffffffffffffffffffffffffff16036111ef576040517f08c379a00000000000000000000000000000000000000000000000000000000081526004016111e690612ce6565b60405180910390fd5b6111fa838383611980565b611205600082610f73565b6001600360008573ffffffffffffffffffffffffffffffffffffffff1673ffffffffffffffffffffffffffffffffffffffff16815260200190815260200160002060008282546112559190612d35565b925050819055506001600360008473ffffffffffffffffffffffffffffffffffffffff1673ffffffffffffffffffffffffffffffffffffffff16815260200190815260200160002060008282546112ac9190612d69565b92505081905550816002600083815260200190815260200160002060006101000a81548173ffffffffffffffffffffffffffffffffffffffff021916908373ffffffffffffffffffffffffffffffffffffffff160217905550808273ffffffffffffffffffffffffffffffffffffffff168473ffffffffffffffffffffffffffffffffffffffff167fddf252ad1be2c89b69c2b068fc378daa952ba7f163c4a11628f55a4df523b3ef60405160405180910390a461136b838383611985565b505050565b6113798161198a565b6000600660008381526020019081526020016000208054611399906125c3565b9050146113c0576006600082815260200190815260200160002060006113bf9190611db1565b5b50565b6000600760009054906101000a900473ffffffffffffffffffffffffffffffffffffffff16905081600760006101000a81548173ffffffffffffffffffffffffffffffffffffffff021916908373ffffffffffffffffffffffffffffffffffffffff1602179055508173ffffffffffffffffffffffffffffffffffffffff168173ffffffffffffffffffffffffffffffffffffffff167f8be0079c531659141344cd1fd0a4f28419497f9722a3daafe3b4186f6b6457e060405160405180910390a35050565b8173ffffffffffffffffffffffffffffffffffffffff168373ffffffffffffffffffffffffffffffffffffffff16036114f7576040517f08c379a00000000000000000000000000000000000000000000000000000000081526004016114ee90612e0b565b60405180910390fd5b80600560008573ffffffffffffffffffffffffffffffffffffffff1673ffffffffffffffffffffffffffffffffffffffff16815260200190815260200160002060008473ffffffffffffffffffffffffffffffffffffffff1673ffffffffffffffffffffffffffffffffffffffff16815260200190815260200160002060006101000a81548160ff0219169083151502179055508173ffffffffffffffffffffffffffffffffffffffff168373ffffffffffffffffffffffffffffffffffffffff167f17307eab39ab6107e8899845ad3d59bd9653f200f220920489ca2b5937696c31836040516115e89190611f48565b60405180910390a3505050565b61160084848461110a565b61160c84848484611aa7565b61164b576040517f08c379a000000000000000000000000000000000000000000000000000000000815260040161164290612e9d565b60405180910390fd5b50505050565b606060405180602001604052806000815250905090565b606061167382610eff565b6116b2576040517f08c379a00000000000000000000000000000000000000000000000000000000081526004016116a990612f2f565b60405180910390fd5b60006116bc611651565b905060008151116116dc5760405180602001604052806000815250611707565b806116e684611c2e565b6040516020016116f7929190612a9a565b6040516020818303038152906040525b915050919050565b6001816000016000828254019250508190555050565b600081600001549050919050565b600073ffffffffffffffffffffffffffffffffffffffff168273ffffffffffffffffffffffffffffffffffffffff16036117a2576040517f08c379a000000000000000000000000000000000000000000000000000000000815260040161179990612f9b565b60405180910390fd5b6117ab81610eff565b156117eb576040517f08c379a00000000000000000000000000000000000000000000000000000000081526004016117e290613007565b60405180910390fd5b6117f760008383611980565b6001600360008473ffffffffffffffffffffffffffffffffffffffff1673ffffffffffffffffffffffffffffffffffffffff16815260200190815260200160002060008282546118479190612d69565b92505081905550816002600083815260200190815260200160002060006101000a81548173ffffffffffffffffffffffffffffffffffffffff021916908373ffffffffffffffffffffffffffffffffffffffff160217905550808273ffffffffffffffffffffffffffffffffffffffff16600073ffffffffffffffffffffffffffffffffffffffff167fddf252ad1be2c89b69c2b068fc378daa952ba7f163c4a11628f55a4df523b3ef60405160405180910390a461190860008383611985565b5050565b61191582610eff565b611954576040517f08c379a000000000000000000000000000000000000000000000000000000000815260040161194b90613099565b60405180910390fd5b8060066000848152602001908152602001600020908051906020019061197b929190611df1565b505050565b505050565b505050565b6000611995826107e2565b90506119a381600084611980565b6119ae600083610f73565b6001600360008373ffffffffffffffffffffffffffffffffffffffff1673ffffffffffffffffffffffffffffffffffffffff16815260200190815260200160002060008282546119fe9190612d35565b925050819055506002600083815260200190815260200160002060006101000a81549073ffffffffffffffffffffffffffffffffffffffff021916905581600073ffffffffffffffffffffffffffffffffffffffff168273ffffffffffffffffffffffffffffffffffffffff167fddf252ad1be2c89b69c2b068fc378daa952ba7f163c4a11628f55a4df523b3ef60405160405180910390a4611aa381600084611985565b5050565b6000611ac88473ffffffffffffffffffffffffffffffffffffffff16611d8e565b15611c21578373ffffffffffffffffffffffffffffffffffffffff1663150b7a02611af1610f6b565b8786866040518563ffffffff1660e01b8152600401611b13949392919061310e565b6020604051808303816000875af1925050508015611b4f57506040513d601f19601f82011682018060405250810190611b4c919061316f565b60015b611bd1573d8060008114611b7f576040519150601f19603f3d011682016040523d82523d6000602084013e611b84565b606091505b506000815103611bc9576040517f08c379a0000000000000000000000000000000000000000000000000000000008152600401611bc090612e9d565b60405180910390fd5b805181602001fd5b63150b7a0260e01b7bffffffffffffffffffffffffffffffffffffffffffffffffffffffff1916817bffffffffffffffffffffffffffffffffffffffffffffffffffffffff191614915050611c26565b600190505b949350505050565b606060008203611c75576040518060400160405280600181526020017f30000000000000000000000000000000000000000000000000000000000000008152509050611d89565b600082905060005b60008214611ca7578080611c909061319c565b915050600a82611ca09190613213565b9150611c7d565b60008167ffffffffffffffff811115611cc357611cc26122bc565b5b6040519080825280601f01601f191660200182016040528015611cf55781602001600182028036833780820191505090505b5090505b60008514611d8257600182611d0e9190612d35565b9150600a85611d1d9190613244565b6030611d299190612d69565b60f81b818381518110611d3f57611d3e613275565b5b60200101907effffffffffffffffffffffffffffffffffffffffffffffffffffffffffffff1916908160001a905350600a85611d7b9190613213565b9450611cf9565b8093505050505b919050565b6000808273ffffffffffffffffffffffffffffffffffffffff163b119050919050565b508054611dbd906125c3565b6000825580601f10611dcf5750611dee565b601f016020900490600052602060002090810190611ded9190611e77565b5b50565b828054611dfd906125c3565b90600052602060002090601f016020900481019282611e1f5760008555611e66565b82601f10611e3857805160ff1916838001178555611e66565b82800160010185558215611e66579182015b82811115611e65578251825591602001919060010190611e4a565b5b509050611e739190611e77565b5090565b5b80821115611e90576000816000905550600101611e78565b5090565b6000604051905090565b600080fd5b600080fd5b60007fffffffff0000000000000000000000000000000000000000000000000000000082169050919050565b611edd81611ea8565b8114611ee857600080fd5b50565b600081359050611efa81611ed4565b92915050565b600060208284031215611f1657611f15611e9e565b5b6000611f2484828501611eeb565b91505092915050565b60008115159050919050565b611f4281611f2d565b82525050565b6000602082019050611f5d6000830184611f39565b92915050565b600081519050919050565b600082825260208201905092915050565b60005b83811015611f9d578082015181840152602081019050611f82565b83811115611fac576000848401525b50505050565b6000601f19601f8301169050919050565b6000611fce82611f63565b611fd88185611f6e565b9350611fe8818560208601611f7f565b611ff181611fb2565b840191505092915050565b600060208201905081810360008301526120168184611fc3565b905092915050565b6000819050919050565b6120318161201e565b811461203c57600080fd5b50565b60008135905061204e81612028565b92915050565b60006020828403121561206a57612069611e9e565b5b60006120788482850161203f565b91505092915050565b600073ffffffffffffffffffffffffffffffffffffffff82169050919050565b60006120ac82612081565b9050919050565b6120bc816120a1565b82525050565b60006020820190506120d760008301846120b3565b92915050565b6120e6816120a1565b81146120f157600080fd5b50565b600081359050612103816120dd565b92915050565b600080604083850312156121205761211f611e9e565b5b600061212e858286016120f4565b925050602061213f8582860161203f565b9150509250929050565b60008060006060848603121561216257612161611e9e565b5b6000612170868287016120f4565b9350506020612181868287016120f4565b92505060406121928682870161203f565b9150509250925092565b6000806000606084860312156121b5576121b4611e9e565b5b60006121c38682870161203f565b93505060206121d4868287016120f4565b92505060406121e5868287016120f4565b9150509250925092565b60006020828403121561220557612204611e9e565b5b6000612213848285016120f4565b91505092915050565b6122258161201e565b82525050565b6000602082019050612240600083018461221c565b92915050565b61224f81611f2d565b811461225a57600080fd5b50565b60008135905061226c81612246565b92915050565b6000806040838503121561228957612288611e9e565b5b6000612297858286016120f4565b92505060206122a88582860161225d565b9150509250929050565b600080fd5b600080fd5b7f4e487b7100000000000000000000000000000000000000000000000000000000600052604160045260246000fd5b6122f482611fb2565b810181811067ffffffffffffffff82111715612313576123126122bc565b5b80604052505050565b6000612326611e94565b905061233282826122eb565b919050565b600067ffffffffffffffff821115612352576123516122bc565b5b61235b82611fb2565b9050602081019050919050565b82818337600083830152505050565b600061238a61238584612337565b61231c565b9050828152602081018484840111156123a6576123a56122b7565b5b6123b1848285612368565b509392505050565b600082601f8301126123ce576123cd6122b2565b5b81356123de848260208601612377565b91505092915050565b6000806000806080858703121561240157612400611e9e565b5b600061240f878288016120f4565b9450506020612420878288016120f4565b93505060406124318782880161203f565b925050606085013567ffffffffffffffff81111561245257612451611ea3565b5b61245e878288016123b9565b91505092959194509250565b6000806040838503121561248157612480611e9e565b5b600061248f858286016120f4565b92505060206124a0858286016120f4565b9150509250929050565b600067ffffffffffffffff8211156124c5576124c46122bc565b5b6124ce82611fb2565b9050602081019050919050565b60006124ee6124e9846124aa565b61231c565b90508281526020810184848401111561250a576125096122b7565b5b612515848285612368565b509392505050565b600082601f830112612532576125316122b2565b5b81356125428482602086016124db565b91505092915050565b60006020828403121561256157612560611e9e565b5b600082013567ffffffffffffffff81111561257f5761257e611ea3565b5b61258b8482850161251d565b91505092915050565b7f4e487b7100000000000000000000000000000000000000000000000000000000600052602260045260246000fd5b600060028204905060018216806125db57607f821691505b6020821081036125ee576125ed612594565b5b50919050565b7f4552433732313a20617070726f76656420717565727920666f72206e6f6e657860008201527f697374656e7420746f6b656e0000000000000000000000000000000000000000602082015250565b6000612650602c83611f6e565b915061265b826125f4565b604082019050919050565b6000602082019050818103600083015261267f81612643565b9050919050565b7f4552433732313a20617070726f76616c20746f2063757272656e74206f776e6560008201527f7200000000000000000000000000000000000000000000000000000000000000602082015250565b60006126e2602183611f6e565b91506126ed82612686565b604082019050919050565b60006020820190508181036000830152612711816126d5565b9050919050565b7f4552433732313a20617070726f76652063616c6c6572206973206e6f74206f7760008201527f6e6572206e6f7220617070726f76656420666f7220616c6c0000000000000000602082015250565b6000612774603883611f6e565b915061277f82612718565b604082019050919050565b600060208201905081810360008301526127a381612767565b9050919050565b7f4552433732313a207472616e736665722063616c6c6572206973206e6f74206f60008201527f776e6572206e6f7220617070726f766564000000000000000000000000000000602082015250565b6000612806603183611f6e565b9150612811826127aa565b604082019050919050565b60006020820190508181036000830152612835816127f9565b9050919050565b7f4f776e61626c653a2063616c6c6572206973206e6f7420746865206f776e6572600082015250565b6000612872602083611f6e565b915061287d8261283c565b602082019050919050565b600060208201905081810360008301526128a181612865565b9050919050565b7f4552433732313a206f776e657220717565727920666f72206e6f6e657869737460008201527f656e7420746f6b656e0000000000000000000000000000000000000000000000602082015250565b6000612904602983611f6e565b915061290f826128a8565b604082019050919050565b60006020820190508181036000830152612933816128f7565b9050919050565b7f4552433732313a2062616c616e636520717565727920666f7220746865207a6560008201527f726f206164647265737300000000000000000000000000000000000000000000602082015250565b6000612996602a83611f6e565b91506129a18261293a565b604082019050919050565b600060208201905081810360008301526129c581612989565b9050919050565b7f45524337323155524953746f726167653a2055524920717565727920666f722060008201527f6e6f6e6578697374656e7420746f6b656e000000000000000000000000000000602082015250565b6000612a28603183611f6e565b9150612a33826129cc565b604082019050919050565b60006020820190508181036000830152612a5781612a1b565b9050919050565b600081905092915050565b6000612a7482611f63565b612a7e8185612a5e565b9350612a8e818560208601611f7f565b80840191505092915050565b6000612aa68285612a69565b9150612ab28284612a69565b91508190509392505050565b7f4f776e61626c653a206e6577206f776e657220697320746865207a65726f206160008201527f6464726573730000000000000000000000000000000000000000000000000000602082015250565b6000612b1a602683611f6e565b9150612b2582612abe565b604082019050919050565b60006020820190508181036000830152612b4981612b0d565b9050919050565b7f4552433732313a206f70657261746f7220717565727920666f72206e6f6e657860008201527f697374656e7420746f6b656e0000000000000000000000000000000000000000602082015250565b6000612bac602c83611f6e565b9150612bb782612b50565b604082019050919050565b60006020820190508181036000830152612bdb81612b9f565b9050919050565b7f4552433732313a207472616e736665722066726f6d20696e636f72726563742060008201527f6f776e6572000000000000000000000000000000000000000000000000000000602082015250565b6000612c3e602583611f6e565b9150612c4982612be2565b604082019050919050565b60006020820190508181036000830152612c6d81612c31565b9050919050565b7f4552433732313a207472616e7366657220746f20746865207a65726f2061646460008201527f7265737300000000000000000000000000000000000000000000000000000000602082015250565b6000612cd0602483611f6e565b9150612cdb82612c74565b604082019050919050565b60006020820190508181036000830152612cff81612cc3565b9050919050565b7f4e487b7100000000000000000000000000000000000000000000000000000000600052601160045260246000fd5b6000612d408261201e565b9150612d4b8361201e565b925082821015612d5e57612d5d612d06565b5b828203905092915050565b6000612d748261201e565b9150612d7f8361201e565b9250827fffffffffffffffffffffffffffffffffffffffffffffffffffffffffffffffff03821115612db457612db3612d06565b5b828201905092915050565b7f4552433732313a20617070726f766520746f2063616c6c657200000000000000600082015250565b6000612df5601983611f6e565b9150612e0082612dbf565b602082019050919050565b60006020820190508181036000830152612e2481612de8565b9050919050565b7f4552433732313a207472616e7366657220746f206e6f6e20455243373231526560008201527f63656976657220696d706c656d656e7465720000000000000000000000000000602082015250565b6000612e87603283611f6e565b9150612e9282612e2b565b604082019050919050565b60006020820190508181036000830152612eb681612e7a565b9050919050565b7f4552433732314d657461646174613a2055524920717565727920666f72206e6f60008201527f6e6578697374656e7420746f6b656e0000000000000000000000000000000000602082015250565b6000612f19602f83611f6e565b9150612f2482612ebd565b604082019050919050565b60006020820190508181036000830152612f4881612f0c565b9050919050565b7f4552433732313a206d696e7420746f20746865207a65726f2061646472657373600082015250565b6000612f85602083611f6e565b9150612f9082612f4f565b602082019050919050565b60006020820190508181036000830152612fb481612f78565b9050919050565b7f4552433732313a20746f6b656e20616c7265616479206d696e74656400000000600082015250565b6000612ff1601c83611f6e565b9150612ffc82612fbb565b602082019050919050565b6000602082019050818103600083015261302081612fe4565b9050919050565b7f45524337323155524953746f726167653a2055524920736574206f66206e6f6e60008201527f6578697374656e7420746f6b656e000000000000000000000000000000000000602082015250565b6000613083602e83611f6e565b915061308e82613027565b604082019050919050565b600060208201905081810360008301526130b281613076565b9050919050565b600081519050919050565b600082825260208201905092915050565b60006130e0826130b9565b6130ea81856130c4565b93506130fa818560208601611f7f565b61310381611fb2565b840191505092915050565b600060808201905061312360008301876120b3565b61313060208301866120b3565b61313d604083018561221c565b818103606083015261314f81846130d5565b905095945050505050565b60008151905061316981611ed4565b92915050565b60006020828403121561318557613184611e9e565b5b60006131938482850161315a565b91505092915050565b60006131a78261201e565b91507fffffffffffffffffffffffffffffffffffffffffffffffffffffffffffffffff82036131d9576131d8612d06565b5b600182019050919050565b7f4e487b7100000000000000000000000000000000000000000000000000000000600052601260045260246000fd5b600061321e8261201e565b91506132298361201e565b925082613239576132386131e4565b5b828204905092915050565b600061324f8261201e565b915061325a8361201e565b92508261326a576132696131e4565b5b828206905092915050565b7f4e487b7100000000000000000000000000000000000000000000000000000000600052603260045260246000fdfea2646970667358221220716762b1fb0f21c08ac24d48ac3e00f64b021e2955869ec43f6794aa0d69fe5164736f6c634300080e0033",
  "immutableReferences": {},
  "source": "// SPDX-License-Identifier: MIT\npragma solidity >=0.4.20 <0.9.0;\n\nimport \"@openzeppelin/contracts/token/ERC721/ERC721.sol\";\nimport \"@openzeppelin/contracts/utils/Counters.sol\";\nimport \"@openzeppelin/contracts/access/Ownable.sol\";\nimport \"@openzeppelin/contracts/token/ERC721/extensions/ERC721URIStorage.sol\";\n\ncontract KaleidoNFT is ERC721URIStorage, Ownable{\n    using Counters for Counters.Counter;\n    Counters.Counter private newTokenID;\n\n    constructor() ERC721(\"Kaleido NFT\", \"KLD\"){\n    }\n\n    function mintNFT(string memory tokenURI) public onlyOwner returns (uint256){\n        newTokenID.increment();\n        uint256 newID = newTokenID.current();\n        _mint(msg.sender, newID);\n        _setTokenURI(newID, tokenURI);\n        return newID;\n    }\n\n    function burnNFT(uint256 tokenID) public {\n        _burn(tokenID);\n    }\n\n    function transferNFT(uint256 tokenID, address from, address to )public onlyOwner{\n        transferFrom(from, to, tokenID);\n    }\n}",
  "sourcePath": "/Users/nvikramraju/Desktop/sree/KaleidoNFT/contracts/kaleidoNFT.sol",
  "compiler": {
    "name": "solc",
    "version": "0.8.14+commit.80d49f37.Emscripten.clang"
  },
  "schemaVersion": "3.4.7",
  "updatedAt": "2022-06-21T23:32:41.994Z",
  "devdoc": {
    "kind": "dev",
    "methods": {
      "approve(address,uint256)": {
        "details": "See {IERC721-approve}."
      },
      "balanceOf(address)": {
        "details": "See {IERC721-balanceOf}."
      },
      "getApproved(uint256)": {
        "details": "See {IERC721-getApproved}."
      },
      "isApprovedForAll(address,address)": {
        "details": "See {IERC721-isApprovedForAll}."
      },
      "name()": {
        "details": "See {IERC721Metadata-name}."
      },
      "owner()": {
        "details": "Returns the address of the current owner."
      },
      "ownerOf(uint256)": {
        "details": "See {IERC721-ownerOf}."
      },
      "renounceOwnership()": {
        "details": "Leaves the contract without owner. It will not be possible to call `onlyOwner` functions anymore. Can only be called by the current owner. NOTE: Renouncing ownership will leave the contract without an owner, thereby removing any functionality that is only available to the owner."
      },
      "safeTransferFrom(address,address,uint256)": {
        "details": "See {IERC721-safeTransferFrom}."
      },
      "safeTransferFrom(address,address,uint256,bytes)": {
        "details": "See {IERC721-safeTransferFrom}."
      },
      "setApprovalForAll(address,bool)": {
        "details": "See {IERC721-setApprovalForAll}."
      },
      "supportsInterface(bytes4)": {
        "details": "See {IERC165-supportsInterface}."
      },
      "symbol()": {
        "details": "See {IERC721Metadata-symbol}."
      },
      "tokenURI(uint256)": {
        "details": "See {IERC721Metadata-tokenURI}."
      },
      "transferFrom(address,address,uint256)": {
        "details": "See {IERC721-transferFrom}."
      },
      "transferOwnership(address)": {
        "details": "Transfers ownership of the contract to a new account (`newOwner`). Can only be called by the current owner."
      }
    },
    "version": 1
  },
  "userdoc": {
    "kind": "user",
    "methods": {},
    "version": 1
  }
}